{
  "contractName": "VaccineRegistry",
  "abi": [
    {
      "inputs": [
        {
          "internalType": "address",
          "name": "_manufacturer",
          "type": "address"
        },
        {
          "internalType": "address",
          "name": "_cdc",
          "type": "address"
        },
        {
          "internalType": "address",
          "name": "_regulator",
          "type": "address"
        }
      ],
      "stateMutability": "nonpayable",
      "type": "constructor"
    },
    {
      "inputs": [],
      "name": "cdc",
      "outputs": [
        {
          "internalType": "address",
          "name": "",
          "type": "address"
        }
      ],
      "stateMutability": "view",
      "type": "function",
      "constant": true
    },
    {
      "inputs": [],
      "name": "manufacturer",
      "outputs": [
        {
          "internalType": "address",
          "name": "",
          "type": "address"
        }
      ],
      "stateMutability": "view",
      "type": "function",
      "constant": true
    },
    {
      "inputs": [
        {
          "internalType": "string",
          "name": "",
          "type": "string"
        }
      ],
      "name": "records",
      "outputs": [
        {
          "internalType": "string",
          "name": "merkleRoot",
          "type": "string"
        },
        {
          "internalType": "string",
          "name": "datasetCID",
          "type": "string"
        },
        {
          "internalType": "string",
          "name": "proofCID",
          "type": "string"
        },
        {
          "internalType": "enum VaccineRegistry.Status",
          "name": "status",
          "type": "uint8"
        },
        {
          "internalType": "uint256",
          "name": "timestamp",
          "type": "uint256"
        }
      ],
      "stateMutability": "view",
      "type": "function",
      "constant": true
    },
    {
      "inputs": [],
      "name": "regulator",
      "outputs": [
        {
          "internalType": "address",
          "name": "",
          "type": "address"
        }
      ],
      "stateMutability": "view",
      "type": "function",
      "constant": true
    },
    {
      "inputs": [
        {
          "internalType": "string",
          "name": "batchId",
          "type": "string"
        },
        {
          "internalType": "string",
          "name": "merkleRoot",
          "type": "string"
        },
        {
          "internalType": "string",
          "name": "datasetCID",
          "type": "string"
        },
        {
          "internalType": "string",
          "name": "proofCID",
          "type": "string"
        }
      ],
      "name": "uploadByManufacturer",
      "outputs": [],
      "stateMutability": "nonpayable",
      "type": "function"
    },
    {
      "inputs": [
        {
          "internalType": "string",
          "name": "batchId",
          "type": "string"
        }
      ],
      "name": "verifyByCDC",
      "outputs": [],
      "stateMutability": "nonpayable",
      "type": "function"
    },
    {
      "inputs": [
        {
          "internalType": "string",
          "name": "batchId",
          "type": "string"
        }
      ],
      "name": "approveByRegulator",
      "outputs": [],
      "stateMutability": "nonpayable",
      "type": "function"
    },
    {
      "inputs": [
        {
          "internalType": "string",
          "name": "batchId",
          "type": "string"
        }
      ],
      "name": "getRecord",
      "outputs": [
        {
          "components": [
            {
              "internalType": "string",
              "name": "merkleRoot",
              "type": "string"
            },
            {
              "internalType": "string",
              "name": "datasetCID",
              "type": "string"
            },
            {
              "internalType": "string",
              "name": "proofCID",
              "type": "string"
            },
            {
              "internalType": "enum VaccineRegistry.Status",
              "name": "status",
              "type": "uint8"
            },
            {
              "internalType": "uint256",
              "name": "timestamp",
              "type": "uint256"
            }
          ],
          "internalType": "struct VaccineRegistry.VaccineRecord",
          "name": "",
          "type": "tuple"
        }
      ],
      "stateMutability": "view",
      "type": "function",
      "constant": true
    }
  ],
  "bytecode": "0x608060405234801562000010575f80fd5b506040516200172138038062001721833981810160405281019062000036919062000164565b8260015f6101000a81548173ffffffffffffffffffffffffffffffffffffffff021916908373ffffffffffffffffffffffffffffffffffffffff1602179055508160025f6101000a81548173ffffffffffffffffffffffffffffffffffffffff021916908373ffffffffffffffffffffffffffffffffffffffff1602179055508060035f6101000a81548173ffffffffffffffffffffffffffffffffffffffff021916908373ffffffffffffffffffffffffffffffffffffffff160217905550505050620001bd565b5f80fd5b5f73ffffffffffffffffffffffffffffffffffffffff82169050919050565b5f6200012e8262000103565b9050919050565b620001408162000122565b81146200014b575f80fd5b50565b5f815190506200015e8162000135565b92915050565b5f805f606084860312156200017e576200017d620000ff565b5b5f6200018d868287016200014e565b9350506020620001a0868287016200014e565b9250506040620001b3868287016200014e565b9150509250925092565b61155680620001cb5f395ff3fe608060405234801561000f575f80fd5b5060043610610086575f3560e01c8063668f918211610059578063668f9182146101265780637475428214610142578063828ae96d14610160578063dd8fee141461017e57610086565b80630ad164531461008a57806311dd8845146100a65780634ee22b06146100d6578063541e771d146100f2575b5f80fd5b6100a4600480360381019061009f9190610c1a565b61019c565b005b6100c060048036038101906100bb9190610c1a565b61036b565b6040516100cd9190610de7565b60405180910390f35b6100f060048036038101906100eb9190610c1a565b610595565b005b61010c60048036038101906101079190610c1a565b6106d1565b60405161011d959493929190610e6d565b60405180910390f35b610140600480360381019061013b9190610ed3565b6108b8565b005b61014a610a1f565b6040516101579190610fe6565b60405180910390f35b610168610a44565b6040516101759190610fe6565b60405180910390f35b610186610a69565b6040516101939190610fe6565b60405180910390f35b60035f9054906101000a900473ffffffffffffffffffffffffffffffffffffffff1673ffffffffffffffffffffffffffffffffffffffff163373ffffffffffffffffffffffffffffffffffffffff161461022b576040517f08c379a000000000000000000000000000000000000000000000000000000000815260040161022290611049565b60405180910390fd5b5f808260405161023b91906110a1565b9081526020016040518091039020600401540361028d576040517f08c379a000000000000000000000000000000000000000000000000000000000815260040161028490611101565b60405180910390fd5b600160028111156102a1576102a0610cdb565b5b5f826040516102b091906110a1565b90815260200160405180910390206003015f9054906101000a900460ff1660028111156102e0576102df610cdb565b5b14610320576040517f08c379a000000000000000000000000000000000000000000000000000000000815260040161031790611169565b60405180910390fd5b60025f8260405161033191906110a1565b90815260200160405180910390206003015f6101000a81548160ff0219169083600281111561036357610362610cdb565b5b021790555050565b610373610a8e565b5f8260405161038291906110a1565b90815260200160405180910390206040518060a00160405290815f820180546103aa906111b4565b80601f01602080910402602001604051908101604052809291908181526020018280546103d6906111b4565b80156104215780601f106103f857610100808354040283529160200191610421565b820191905f5260205f20905b81548152906001019060200180831161040457829003601f168201915b5050505050815260200160018201805461043a906111b4565b80601f0160208091040260200160405190810160405280929190818152602001828054610466906111b4565b80156104b15780601f10610488576101008083540402835291602001916104b1565b820191905f5260205f20905b81548152906001019060200180831161049457829003601f168201915b505050505081526020016002820180546104ca906111b4565b80601f01602080910402602001604051908101604052809291908181526020018280546104f6906111b4565b80156105415780601f1061051857610100808354040283529160200191610541565b820191905f5260205f20905b81548152906001019060200180831161052457829003601f168201915b50505050508152602001600382015f9054906101000a900460ff16600281111561056e5761056d610cdb565b5b60028111156105805761057f610cdb565b5b81526020016004820154815250509050919050565b60025f9054906101000a900473ffffffffffffffffffffffffffffffffffffffff1673ffffffffffffffffffffffffffffffffffffffff163373ffffffffffffffffffffffffffffffffffffffff1614610624576040517f08c379a000000000000000000000000000000000000000000000000000000000815260040161061b9061122e565b60405180910390fd5b5f808260405161063491906110a1565b90815260200160405180910390206004015403610686576040517f08c379a000000000000000000000000000000000000000000000000000000000815260040161067d90611101565b60405180910390fd5b60015f8260405161069791906110a1565b90815260200160405180910390206003015f6101000a81548160ff021916908360028111156106c9576106c8610cdb565b5b021790555050565b5f818051602081018201805184825260208301602085012081835280955050505050505f91509050805f018054610707906111b4565b80601f0160208091040260200160405190810160405280929190818152602001828054610733906111b4565b801561077e5780601f106107555761010080835404028352916020019161077e565b820191905f5260205f20905b81548152906001019060200180831161076157829003601f168201915b505050505090806001018054610793906111b4565b80601f01602080910402602001604051908101604052809291908181526020018280546107bf906111b4565b801561080a5780601f106107e15761010080835404028352916020019161080a565b820191905f5260205f20905b8154815290600101906020018083116107ed57829003601f168201915b50505050509080600201805461081f906111b4565b80601f016020809104026020016040519081016040528092919081815260200182805461084b906111b4565b80156108965780601f1061086d57610100808354040283529160200191610896565b820191905f5260205f20905b81548152906001019060200180831161087957829003601f168201915b505050505090806003015f9054906101000a900460ff16908060040154905085565b60015f9054906101000a900473ffffffffffffffffffffffffffffffffffffffff1673ffffffffffffffffffffffffffffffffffffffff163373ffffffffffffffffffffffffffffffffffffffff1614610947576040517f08c379a000000000000000000000000000000000000000000000000000000000815260040161093e90611296565b60405180910390fd5b6040518060a001604052808481526020018381526020018281526020015f600281111561097757610976610cdb565b5b8152602001428152505f8560405161098f91906110a1565b90815260200160405180910390205f820151815f0190816109b09190611451565b5060208201518160010190816109c69190611451565b5060408201518160020190816109dc9190611451565b506060820151816003015f6101000a81548160ff02191690836002811115610a0757610a06610cdb565b5b02179055506080820151816004015590505050505050565b60015f9054906101000a900473ffffffffffffffffffffffffffffffffffffffff1681565b60025f9054906101000a900473ffffffffffffffffffffffffffffffffffffffff1681565b60035f9054906101000a900473ffffffffffffffffffffffffffffffffffffffff1681565b6040518060a001604052806060815260200160608152602001606081526020015f6002811115610ac157610ac0610cdb565b5b81526020015f81525090565b5f604051905090565b5f80fd5b5f80fd5b5f80fd5b5f80fd5b5f601f19601f8301169050919050565b7f4e487b71000000000000000000000000000000000000000000000000000000005f52604160045260245ffd5b610b2c82610ae6565b810181811067ffffffffffffffff82111715610b4b57610b4a610af6565b5b80604052505050565b5f610b5d610acd565b9050610b698282610b23565b919050565b5f67ffffffffffffffff821115610b8857610b87610af6565b5b610b9182610ae6565b9050602081019050919050565b828183375f83830152505050565b5f610bbe610bb984610b6e565b610b54565b905082815260208101848484011115610bda57610bd9610ae2565b5b610be5848285610b9e565b509392505050565b5f82601f830112610c0157610c00610ade565b5b8135610c11848260208601610bac565b91505092915050565b5f60208284031215610c2f57610c2e610ad6565b5b5f82013567ffffffffffffffff811115610c4c57610c4b610ada565b5b610c5884828501610bed565b91505092915050565b5f81519050919050565b5f82825260208201905092915050565b5f5b83811015610c98578082015181840152602081019050610c7d565b5f8484015250505050565b5f610cad82610c61565b610cb78185610c6b565b9350610cc7818560208601610c7b565b610cd081610ae6565b840191505092915050565b7f4e487b71000000000000000000000000000000000000000000000000000000005f52602160045260245ffd5b60038110610d1957610d18610cdb565b5b50565b5f819050610d2982610d08565b919050565b5f610d3882610d1c565b9050919050565b610d4881610d2e565b82525050565b5f819050919050565b610d6081610d4e565b82525050565b5f60a083015f8301518482035f860152610d808282610ca3565b91505060208301518482036020860152610d9a8282610ca3565b91505060408301518482036040860152610db48282610ca3565b9150506060830151610dc96060860182610d3f565b506080830151610ddc6080860182610d57565b508091505092915050565b5f6020820190508181035f830152610dff8184610d66565b905092915050565b5f82825260208201905092915050565b5f610e2182610c61565b610e2b8185610e07565b9350610e3b818560208601610c7b565b610e4481610ae6565b840191505092915050565b610e5881610d2e565b82525050565b610e6781610d4e565b82525050565b5f60a0820190508181035f830152610e858188610e17565b90508181036020830152610e998187610e17565b90508181036040830152610ead8186610e17565b9050610ebc6060830185610e4f565b610ec96080830184610e5e565b9695505050505050565b5f805f8060808587031215610eeb57610eea610ad6565b5b5f85013567ffffffffffffffff811115610f0857610f07610ada565b5b610f1487828801610bed565b945050602085013567ffffffffffffffff811115610f3557610f34610ada565b5b610f4187828801610bed565b935050604085013567ffffffffffffffff811115610f6257610f61610ada565b5b610f6e87828801610bed565b925050606085013567ffffffffffffffff811115610f8f57610f8e610ada565b5b610f9b87828801610bed565b91505092959194509250565b5f73ffffffffffffffffffffffffffffffffffffffff82169050919050565b5f610fd082610fa7565b9050919050565b610fe081610fc6565b82525050565b5f602082019050610ff95f830184610fd7565b92915050565b7f4f6e6c7920726567756c61746f7220616c6c6f776564000000000000000000005f82015250565b5f611033601683610e07565b915061103e82610fff565b602082019050919050565b5f6020820190508181035f83015261106081611027565b9050919050565b5f81905092915050565b5f61107b82610c61565b6110858185611067565b9350611095818560208601610c7b565b80840191505092915050565b5f6110ac8284611071565b915081905092915050565b7f4261746368206e6f7420666f756e6400000000000000000000000000000000005f82015250565b5f6110eb600f83610e07565b91506110f6826110b7565b602082019050919050565b5f6020820190508181035f830152611118816110df565b9050919050565b7f4d757374206265204344432076657269666965640000000000000000000000005f82015250565b5f611153601483610e07565b915061115e8261111f565b602082019050919050565b5f6020820190508181035f83015261118081611147565b9050919050565b7f4e487b71000000000000000000000000000000000000000000000000000000005f52602260045260245ffd5b5f60028204905060018216806111cb57607f821691505b6020821081036111de576111dd611187565b5b50919050565b7f4f6e6c792043444320616c6c6f776564000000000000000000000000000000005f82015250565b5f611218601083610e07565b9150611223826111e4565b602082019050919050565b5f6020820190508181035f8301526112458161120c565b9050919050565b7f4f6e6c79204d616e75666163747572657220616c6c6f776564000000000000005f82015250565b5f611280601983610e07565b915061128b8261124c565b602082019050919050565b5f6020820190508181035f8301526112ad81611274565b9050919050565b5f819050815f5260205f209050919050565b5f6020601f8301049050919050565b5f82821b905092915050565b5f600883026113107fffffffffffffffffffffffffffffffffffffffffffffffffffffffffffffffff826112d5565b61131a86836112d5565b95508019841693508086168417925050509392505050565b5f819050919050565b5f61135561135061134b84610d4e565b611332565b610d4e565b9050919050565b5f819050919050565b61136e8361133b565b61138261137a8261135c565b8484546112e1565b825550505050565b5f90565b61139661138a565b6113a1818484611365565b505050565b5b818110156113c4576113b95f8261138e565b6001810190506113a7565b5050565b601f821115611409576113da816112b4565b6113e3846112c6565b810160208510156113f2578190505b6114066113fe856112c6565b8301826113a6565b50505b505050565b5f82821c905092915050565b5f6114295f198460080261140e565b1980831691505092915050565b5f611441838361141a565b9150826002028217905092915050565b61145a82610c61565b67ffffffffffffffff81111561147357611472610af6565b5b61147d82546111b4565b6114888282856113c8565b5f60209050601f8311600181146114b9575f84156114a7578287015190505b6114b18582611436565b865550611518565b601f1984166114c7866112b4565b5f5b828110156114ee578489015182556001820191506020850194506020810190506114c9565b8683101561150b5784890151611507601f89168261141a565b8355505b6001600288020188555050505b50505050505056fea264697066735822122038480087432fd86697f0937f9f1b080aee456e04d50ee629cdb6978054f8eb4c64736f6c63430008150033",
  "immutableReferences": {},
  "source": "// SPDX-License-Identifier: MIT\r\npragma solidity ^0.8.21;\r\n\r\ncontract VaccineRegistry {\r\n\r\n    enum Status { \r\n        UploadedByManufacturer, \r\n        VerifiedByCDC, \r\n        ApprovedByRegulator \r\n    }\r\n\r\n    struct VaccineRecord {\r\n        string merkleRoot;\r\n        string datasetCID;\r\n        string proofCID;\r\n        Status status;\r\n        uint256 timestamp;\r\n    }\r\n\r\n    mapping(string => VaccineRecord) public records;\r\n\r\n    address public manufacturer;\r\n    address public cdc;\r\n    address public regulator;\r\n\r\n    constructor(address _manufacturer, address _cdc, address _regulator){\r\n        manufacturer = _manufacturer;\r\n        cdc = _cdc;\r\n        regulator = _regulator;\r\n    }\r\n\r\n    // -------------------------------\r\n    // 1️⃣ Manufacturer uploads data\r\n    // -------------------------------\r\n    function uploadByManufacturer(\r\n        string memory batchId,\r\n        string memory merkleRoot,\r\n        string memory datasetCID,\r\n        string memory proofCID\r\n    ) public {\r\n        require(msg.sender == manufacturer, \"Only Manufacturer allowed\");\r\n\r\n        records[batchId] = VaccineRecord({\r\n            merkleRoot: merkleRoot,\r\n            datasetCID: datasetCID,\r\n            proofCID: proofCID,\r\n            status: Status.UploadedByManufacturer,\r\n            timestamp: block.timestamp\r\n        });\r\n    }\r\n\r\n    // -------------------------------\r\n    // 2️⃣ CDC verifies batch\r\n    // -------------------------------\r\n    function verifyByCDC(string memory batchId) public {\r\n        require(msg.sender == cdc, \"Only CDC allowed\");\r\n        require(records[batchId].timestamp != 0, \"Batch not found\");\r\n\r\n        records[batchId].status = Status.VerifiedByCDC;\r\n    }\r\n\r\n    // -------------------------------\r\n    // 3️⃣ Regulator approves final batch\r\n    // -------------------------------\r\n    function approveByRegulator(string memory batchId) public {\r\n        require(msg.sender == regulator, \"Only regulator allowed\");\r\n        require(records[batchId].timestamp != 0, \"Batch not found\");\r\n        require(records[batchId].status == Status.VerifiedByCDC, \"Must be CDC verified\");\r\n\r\n        records[batchId].status = Status.ApprovedByRegulator;\r\n    }\r\n\r\n    // -------------------------------\r\n    // Getter for entire record\r\n    // -------------------------------\r\n    function getRecord(string memory batchId)\r\n        public view\r\n        returns (VaccineRecord memory)\r\n    {\r\n        return records[batchId];\r\n    }\r\n}",
  "sourcePath": "C:\\Users\\ASUS\\vaccine_prototype\\contracts\\VaccineRegistry.sol",
  "compiler": {
    "name": "solc",
    "version": "0.8.21+commit.d9974bed.Emscripten.clang"
  },
  "schemaVersion": "3.4.16",
  "updatedAt": "2025-11-19T11:45:22.282Z",
  "networkType": "ethereum",
  "devdoc": {
    "kind": "dev",
    "methods": {},
    "version": 1
  },
  "userdoc": {
    "kind": "user",
    "methods": {},
    "version": 1
  }
}