{
  "contractName": "VaccineRegistry",
  "abi": [
    {
      "inputs": [],
      "stateMutability": "nonpayable",
      "type": "constructor"
    },
    {
      "inputs": [
        {
          "internalType": "uint256",
          "name": "",
          "type": "uint256"
        }
      ],
      "name": "batchList",
      "outputs": [
        {
          "internalType": "bytes32",
          "name": "",
          "type": "bytes32"
        }
      ],
      "stateMutability": "view",
      "type": "function",
      "constant": true
    },
    {
      "inputs": [
        {
          "internalType": "bytes32",
          "name": "",
          "type": "bytes32"
        }
      ],
      "name": "batches",
      "outputs": [
        {
          "internalType": "string",
          "name": "dataCID",
          "type": "string"
        },
        {
          "internalType": "bytes32",
          "name": "merkleRoot",
          "type": "bytes32"
        },
        {
          "internalType": "string",
          "name": "sigCID",
          "type": "string"
        },
        {
          "internalType": "bytes32",
          "name": "sigHash",
          "type": "bytes32"
        },
        {
          "internalType": "uint256",
          "name": "uploadTime",
          "type": "uint256"
        },
        {
          "internalType": "uint256",
          "name": "signatureTime",
          "type": "uint256"
        },
        {
          "internalType": "uint256",
          "name": "approvalTime",
          "type": "uint256"
        },
        {
          "internalType": "uint256",
          "name": "status",
          "type": "uint256"
        },
        {
          "internalType": "address",
          "name": "manufacturer",
          "type": "address"
        },
        {
          "internalType": "address",
          "name": "regulator",
          "type": "address"
        }
      ],
      "stateMutability": "view",
      "type": "function",
      "constant": true
    },
    {
      "inputs": [],
      "name": "manufacturerRole",
      "outputs": [
        {
          "internalType": "address",
          "name": "",
          "type": "address"
        }
      ],
      "stateMutability": "view",
      "type": "function",
      "constant": true
    },
    {
      "inputs": [],
      "name": "regulatorRole",
      "outputs": [
        {
          "internalType": "address",
          "name": "",
          "type": "address"
        }
      ],
      "stateMutability": "view",
      "type": "function",
      "constant": true
    },
    {
      "inputs": [
        {
          "internalType": "bytes32",
          "name": "batchId",
          "type": "bytes32"
        },
        {
          "internalType": "string",
          "name": "dataCID",
          "type": "string"
        },
        {
          "internalType": "bytes32",
          "name": "merkleRoot",
          "type": "bytes32"
        }
      ],
      "name": "registerBatch",
      "outputs": [],
      "stateMutability": "nonpayable",
      "type": "function"
    },
    {
      "inputs": [
        {
          "internalType": "bytes32",
          "name": "batchId",
          "type": "bytes32"
        },
        {
          "internalType": "string",
          "name": "sigCID",
          "type": "string"
        },
        {
          "internalType": "bytes32",
          "name": "sigHash",
          "type": "bytes32"
        }
      ],
      "name": "storeAggregatedSignature",
      "outputs": [],
      "stateMutability": "nonpayable",
      "type": "function"
    },
    {
      "inputs": [
        {
          "internalType": "bytes32",
          "name": "batchId",
          "type": "bytes32"
        }
      ],
      "name": "approveBatch",
      "outputs": [],
      "stateMutability": "nonpayable",
      "type": "function"
    },
    {
      "inputs": [
        {
          "internalType": "bytes32",
          "name": "batchId",
          "type": "bytes32"
        }
      ],
      "name": "getBatch",
      "outputs": [
        {
          "components": [
            {
              "internalType": "string",
              "name": "dataCID",
              "type": "string"
            },
            {
              "internalType": "bytes32",
              "name": "merkleRoot",
              "type": "bytes32"
            },
            {
              "internalType": "string",
              "name": "sigCID",
              "type": "string"
            },
            {
              "internalType": "bytes32",
              "name": "sigHash",
              "type": "bytes32"
            },
            {
              "internalType": "uint256",
              "name": "uploadTime",
              "type": "uint256"
            },
            {
              "internalType": "uint256",
              "name": "signatureTime",
              "type": "uint256"
            },
            {
              "internalType": "uint256",
              "name": "approvalTime",
              "type": "uint256"
            },
            {
              "internalType": "uint256",
              "name": "status",
              "type": "uint256"
            },
            {
              "internalType": "address",
              "name": "manufacturer",
              "type": "address"
            },
            {
              "internalType": "address",
              "name": "regulator",
              "type": "address"
            }
          ],
          "internalType": "struct VaccineRegistry.Batch",
          "name": "",
          "type": "tuple"
        }
      ],
      "stateMutability": "view",
      "type": "function",
      "constant": true
    },
    {
      "inputs": [],
      "name": "getBatchCount",
      "outputs": [
        {
          "internalType": "uint256",
          "name": "",
          "type": "uint256"
        }
      ],
      "stateMutability": "view",
      "type": "function",
      "constant": true
    },
    {
      "inputs": [
        {
          "internalType": "uint256",
          "name": "index",
          "type": "uint256"
        }
      ],
      "name": "getBatchId",
      "outputs": [
        {
          "internalType": "bytes32",
          "name": "",
          "type": "bytes32"
        }
      ],
      "stateMutability": "view",
      "type": "function",
      "constant": true
    }
  ],
  "bytecode": "0x608060405234801561001057600080fd5b5060028054336001600160a01b03199182168117909255600380549091169091179055610a8f806100426000396000f3fe608060405234801561001057600080fd5b506004361061009e5760003560e01c8063a8fabfa511610066578063a8fabfa51461015a578063c7345a4714610162578063c81e25ab14610175578063cf3ba7da1461019e578063ed42136f146101b157600080fd5b8063193b86da146100a3578063360101ae146100d357806353d68914146100f457806378227cb0146101345780638eb73b7414610147575b600080fd5b6003546100b6906001600160a01b031681565b6040516001600160a01b0390911681526020015b60405180910390f35b6100e66100e136600461079e565b6101d1565b6040519081526020016100ca565b61013261010236600461079e565b60009081526020819052604090204260068201556003600782015560090180546001600160a01b03191633179055565b005b6100e661014236600461079e565b6101f2565b6101326101553660046107cd565b610219565b6001546100e6565b6002546100b6906001600160a01b031681565b61018861018336600461079e565b61035b565b6040516100ca9a999897969594939291906108de565b6101326101ac3660046107cd565b6104c6565b6101c46101bf36600461079e565b610512565b6040516100ca9190610953565b600181815481106101e157600080fd5b600091825260209091200154905081565b60006001828154811061020757610207610a08565b90600052602060002001549050919050565b60408051610140810182528381526020808201849052825180820184526000808252838501919091526060830181905242608084015260a0830181905260c08301819052600160e08401523361010084015261012083018190528681528082529290922081518051929391926102929284920190610705565b506020828101516001830155604083015180516102b59260028501920190610705565b50606082015160038201556080820151600482015560a0820151600582015560c0820151600682015560e082015160078201556101008201516008820180546001600160a01b03199081166001600160a01b03938416179091556101209093015160099092018054909316911617905550506001805480820182556000919091527fb10e2d527612073b26eecdfd717e6a320cf44b4afac2b0732d9fcbe2b7fa0cf60155565b60006020819052908152604090208054819061037690610a1e565b80601f01602080910402602001604051908101604052809291908181526020018280546103a290610a1e565b80156103ef5780601f106103c4576101008083540402835291602001916103ef565b820191906000526020600020905b8154815290600101906020018083116103d257829003601f168201915b50505050509080600101549080600201805461040a90610a1e565b80601f016020809104026020016040519081016040528092919081815260200182805461043690610a1e565b80156104835780601f1061045857610100808354040283529160200191610483565b820191906000526020600020905b81548152906001019060200180831161046657829003601f168201915b5050505060038301546004840154600585015460068601546007870154600888015460099098015496979496939550919390926001600160a01b0391821691168a565b60008381526020818152604090912083516104e992600290920191850190610705565b506000928352602083905260409092206003810192909255504260058201556002600790910155565b6040805161014081018252606080825260006020830181905292820181905281018290526080810182905260a0810182905260c0810182905260e081018290526101008101829052610120810191909152600082815260208190526040908190208151610140810190925280548290829061058c90610a1e565b80601f01602080910402602001604051908101604052809291908181526020018280546105b890610a1e565b80156106055780601f106105da57610100808354040283529160200191610605565b820191906000526020600020905b8154815290600101906020018083116105e857829003601f168201915b505050505081526020016001820154815260200160028201805461062890610a1e565b80601f016020809104026020016040519081016040528092919081815260200182805461065490610a1e565b80156106a15780601f10610676576101008083540402835291602001916106a1565b820191906000526020600020905b81548152906001019060200180831161068457829003601f168201915b505050918352505060038201546020820152600482015460408201526005820154606082015260068201546080820152600782015460a082015260088201546001600160a01b0390811660c083015260099092015490911660e09091015292915050565b82805461071190610a1e565b90600052602060002090601f0160209004810192826107335760008555610779565b82601f1061074c57805160ff1916838001178555610779565b82800160010185558215610779579182015b8281111561077957825182559160200191906001019061075e565b50610785929150610789565b5090565b5b80821115610785576000815560010161078a565b6000602082840312156107b057600080fd5b5035919050565b634e487b7160e01b600052604160045260246000fd5b6000806000606084860312156107e257600080fd5b83359250602084013567ffffffffffffffff8082111561080157600080fd5b818601915086601f83011261081557600080fd5b813581811115610827576108276107b7565b604051601f8201601f19908116603f0116810190838211818310171561084f5761084f6107b7565b8160405282815289602084870101111561086857600080fd5b826020860160208301376000602084830101528096505050505050604084013590509250925092565b6000815180845260005b818110156108b75760208185018101518683018201520161089b565b818111156108c9576000602083870101525b50601f01601f19169290920160200192915050565b60006101408083526108f28184018e610891565b90508b6020840152828103604084015261090c818c610891565b606084019a909a525050608081019690965260a086019490945260c085019290925260e08401526001600160a01b0390811661010084015216610120909101529392505050565b6020815260008251610140806020850152610972610160850183610891565b9150602085015160408501526040850151601f198584030160608601526109998382610891565b92505060608501516080850152608085015160a085015260a085015160c085015260c085015160e085015260e08501516101008181870152808701519150506101206109ef818701836001600160a01b03169052565b909501516001600160a01b031693019290925250919050565b634e487b7160e01b600052603260045260246000fd5b600181811c90821680610a3257607f821691505b60208210811415610a5357634e487b7160e01b600052602260045260246000fd5b5091905056fea2646970667358221220b257a97ed364c7ad20653c7f79b2d5cc7593e7f0abce84e901708e598766b18d64736f6c63430008090033",
  "immutableReferences": {},
  "source": "// SPDX-License-Identifier: MIT\r\npragma solidity ^0.8.9;\r\n\r\ncontract VaccineRegistry {\r\n\r\n    struct Batch {\r\n        string dataCID;\r\n        bytes32 merkleRoot;\r\n        string sigCID;\r\n        bytes32 sigHash;\r\n        uint uploadTime;\r\n        uint signatureTime;\r\n        uint approvalTime;\r\n        uint status;\r\n        address manufacturer;\r\n        address regulator;\r\n    }\r\n\r\n    mapping(bytes32 => Batch) public batches;\r\n    bytes32[] public batchList;\r\n\r\n    address public manufacturerRole;\r\n    address public regulatorRole;\r\n\r\n    constructor() {\r\n        manufacturerRole = msg.sender;\r\n        regulatorRole = msg.sender;\r\n    }\r\n\r\n    function registerBatch(\r\n        bytes32 batchId,\r\n        string memory dataCID,\r\n        bytes32 merkleRoot\r\n    ) public {\r\n        batches[batchId] = Batch({\r\n            dataCID: dataCID,\r\n            merkleRoot: merkleRoot,\r\n            sigCID: \"\",\r\n            sigHash: 0,\r\n            uploadTime: block.timestamp,\r\n            signatureTime: 0,\r\n            approvalTime: 0,\r\n            status: 1,\r\n            manufacturer: msg.sender,\r\n            regulator: address(0)\r\n        });\r\n\r\n        batchList.push(batchId);\r\n    }\r\n\r\n    function storeAggregatedSignature(\r\n        bytes32 batchId,\r\n        string memory sigCID,\r\n        bytes32 sigHash\r\n    ) public {\r\n        batches[batchId].sigCID = sigCID;\r\n        batches[batchId].sigHash = sigHash;\r\n        batches[batchId].signatureTime = block.timestamp;\r\n        batches[batchId].status = 2;\r\n    }\r\n\r\n    function approveBatch(bytes32 batchId) public {\r\n        batches[batchId].approvalTime = block.timestamp;\r\n        batches[batchId].status = 3;\r\n        batches[batchId].regulator = msg.sender;\r\n    }\r\n\r\n    function getBatch(bytes32 batchId) public view returns (Batch memory) {\r\n        return batches[batchId];\r\n    }\r\n\r\n    function getBatchCount() public view returns (uint) {\r\n        return batchList.length;\r\n    }\r\n\r\n    function getBatchId(uint index) public view returns (bytes32) {\r\n        return batchList[index];\r\n    }\r\n}",
  "sourcePath": "C:\\Users\\ASUS\\vaccine_prototype\\contracts\\VaccineRegistry.sol",
  "compiler": {
    "name": "solc",
    "version": "0.8.9+commit.e5eed63a.Emscripten.clang"
  },
  "schemaVersion": "3.4.16",
  "updatedAt": "2026-03-29T07:48:25.197Z",
  "networkType": "ethereum",
  "devdoc": {
    "kind": "dev",
    "methods": {},
    "version": 1
  },
  "userdoc": {
    "kind": "user",
    "methods": {},
    "version": 1
  }
}